{
  "contractName": "Token",
  "abi": [
    {
      "constant": true,
      "inputs": [
        {
          "name": "",
          "type": "address"
        }
      ],
      "name": "balances",
      "outputs": [
        {
          "name": "",
          "type": "uint256"
        }
      ],
      "payable": false,
      "stateMutability": "view",
      "type": "function",
      "signature": "0x27e235e3"
    },
    {
      "constant": true,
      "inputs": [],
      "name": "owner",
      "outputs": [
        {
          "name": "",
          "type": "address"
        }
      ],
      "payable": false,
      "stateMutability": "view",
      "type": "function",
      "signature": "0x8da5cb5b"
    },
    {
      "inputs": [],
      "payable": false,
      "stateMutability": "nonpayable",
      "type": "constructor",
      "signature": "constructor"
    },
    {
      "anonymous": false,
      "inputs": [
        {
          "indexed": false,
          "name": "user",
          "type": "address"
        },
        {
          "indexed": false,
          "name": "amount",
          "type": "uint256"
        }
      ],
      "name": "Burn",
      "type": "event",
      "signature": "0xcc16f5dbb4873280815c1ee09dbd06736cffcc184412cf7a71a0fdb75d397ca5"
    },
    {
      "anonymous": false,
      "inputs": [
        {
          "indexed": false,
          "name": "user",
          "type": "address"
        },
        {
          "indexed": false,
          "name": "amount",
          "type": "uint256"
        }
      ],
      "name": "Earn",
      "type": "event",
      "signature": "0x9b883692663cf2cc636d9eda0392f2c7ff1a3163a5cef27fa1f8bb438ec73ab5"
    },
    {
      "constant": false,
      "inputs": [
        {
          "name": "user",
          "type": "address"
        },
        {
          "name": "amount",
          "type": "uint256"
        }
      ],
      "name": "earn",
      "outputs": [],
      "payable": false,
      "stateMutability": "nonpayable",
      "type": "function",
      "signature": "0xb02bf4b9"
    },
    {
      "constant": false,
      "inputs": [
        {
          "name": "user",
          "type": "address"
        },
        {
          "name": "amount",
          "type": "uint256"
        }
      ],
      "name": "burn",
      "outputs": [],
      "payable": false,
      "stateMutability": "nonpayable",
      "type": "function",
      "signature": "0x9dc29fac"
    }
  ],
  "bytecode": "0x608060405234801561001057600080fd5b50336000806101000a81548173ffffffffffffffffffffffffffffffffffffffff021916908373ffffffffffffffffffffffffffffffffffffffff160217905550610689806100606000396000f3fe608060405260043610610062576000357c0100000000000000000000000000000000000000000000000000000000900463ffffffff16806327e235e3146100675780638da5cb5b146100cc5780639dc29fac14610123578063b02bf4b91461017e575b600080fd5b34801561007357600080fd5b506100b66004803603602081101561008a57600080fd5b81019080803573ffffffffffffffffffffffffffffffffffffffff1690602001909291905050506101d9565b6040518082815260200191505060405180910390f35b3480156100d857600080fd5b506100e16101f1565b604051808273ffffffffffffffffffffffffffffffffffffffff1673ffffffffffffffffffffffffffffffffffffffff16815260200191505060405180910390f35b34801561012f57600080fd5b5061017c6004803603604081101561014657600080fd5b81019080803573ffffffffffffffffffffffffffffffffffffffff16906020019092919080359060200190929190505050610216565b005b34801561018a57600080fd5b506101d7600480360360408110156101a157600080fd5b81019080803573ffffffffffffffffffffffffffffffffffffffff1690602001909291908035906020019092919050505061044d565b005b60016020528060005260406000206000915090505481565b6000809054906101000a900473ffffffffffffffffffffffffffffffffffffffff1681565b6000809054906101000a900473ffffffffffffffffffffffffffffffffffffffff1673ffffffffffffffffffffffffffffffffffffffff163373ffffffffffffffffffffffffffffffffffffffff161415156102da576040517f08c379a00000000000000000000000000000000000000000000000000000000081526004018080602001828103825260168152602001807f596f7520617265206e6f7420746865206f776e65722e0000000000000000000081525060200191505060405180910390fd5b600160008373ffffffffffffffffffffffffffffffffffffffff1673ffffffffffffffffffffffffffffffffffffffff168152602001908152602001600020548111151515610391576040517f08c379a00000000000000000000000000000000000000000000000000000000081526004018080602001828103825260158152602001807f496e73756666696369656e742062616c616e63652e000000000000000000000081525060200191505060405180910390fd5b80600160008473ffffffffffffffffffffffffffffffffffffffff1673ffffffffffffffffffffffffffffffffffffffff168152602001908152602001600020600082825403925050819055507fcc16f5dbb4873280815c1ee09dbd06736cffcc184412cf7a71a0fdb75d397ca58282604051808373ffffffffffffffffffffffffffffffffffffffff1673ffffffffffffffffffffffffffffffffffffffff1681526020018281526020019250505060405180910390a15050565b6000809054906101000a900473ffffffffffffffffffffffffffffffffffffffff1673ffffffffffffffffffffffffffffffffffffffff163373ffffffffffffffffffffffffffffffffffffffff16141515610511576040517f08c379a00000000000000000000000000000000000000000000000000000000081526004018080602001828103825260168152602001807f596f7520617265206e6f7420746865206f776e65722e0000000000000000000081525060200191505060405180910390fd5b789f4f2726179a224501d762422c946590d91000000000000000811015156105a1576040517f08c379a000000000000000000000000000000000000000000000000000000000815260040180806020018281038252601a8152602001807f4d6178696d756d2069737375616e63652073756363656564656400000000000081525060200191505060405180910390fd5b80600160008473ffffffffffffffffffffffffffffffffffffffff1673ffffffffffffffffffffffffffffffffffffffff168152602001908152602001600020600082825401925050819055507f9b883692663cf2cc636d9eda0392f2c7ff1a3163a5cef27fa1f8bb438ec73ab58282604051808373ffffffffffffffffffffffffffffffffffffffff1673ffffffffffffffffffffffffffffffffffffffff1681526020018281526020019250505060405180910390a1505056fea165627a7a72305820ebf9fe2b698c96bec80bf88a84f6cc35cbd707beb836801b26ceffdb762534220029",
  "source": "pragma solidity >=0.4.21 <0.7.0;\n\ncontract Token {\n    // An `address` is comparable to an email address - it's used to identify an account on Ethereum.\n    // Addresses can represent a smart contract or an external (user) accounts.\n    // Learn more: https://solidity.readthedocs.io/en/v0.5.10/types.html#address\n    address public owner;\n\n    // A `mapping` is essentially a hash table data structure.\n    // This `mapping` assigns an unsigned integer (the token balance) to an address (the token holder).\n    // Learn more: https://solidity.readthedocs.io/en/v0.5.10/types.html#mapping-types\n    mapping (address => uint) public balances;\n\n    // Events allow for logging of activity on the blockchain.\n    // Ethereum clients can listen for events in order to react to contract state changes.\n    // Learn more: https://solidity.readthedocs.io/en/v0.5.10/contracts.html#events\n    event Burn(address user, uint amount);\n    event Earn(address user, uint amount);\n\n    // Initializes the contract's data, setting the `owner`\n    // to the address of the contract creator.\n    constructor() public {\n        // All smart contracts rely on external transactions to trigger its functions.\n        // `msg` is a global variable that includes relevant data on the given transaction,\n        // such as the address of the sender and the ETH value included in the transaction.\n        // Learn more: https://solidity.readthedocs.io/en/v0.5.10/units-and-global-variables.html#block-and-transaction-properties\n        owner = msg.sender;\n    }\n\n    // Creates an amount of new tokens and sends them to an address.\n    function earn(address user, uint amount) public {\n        // `require` is a control structure used to enforce certain conditions.\n        // If a `require` statement evaluates to `false`, an exception is triggered,\n        // which reverts all changes made to the state during the current call.\n        // Learn more: https://solidity.readthedocs.io/en/v0.5.10/control-structures.html#error-handling-assert-require-revert-and-exceptions\n\n        // Only the contract owner can call this function\n        require(msg.sender == owner, \"You are not the owner.\");\n\n        // Ensures a maximum amount of tokens\n        require(amount < 1e60, \"Maximum issuance succeeded\");\n\n        // Increases the balance of `user` by `amount`\n        balances[user] += amount;\n\n        emit Earn(user, amount);\n    }\n\n    // Sends an amount of existing tokens from any caller to an address.\n    function burn(address user, uint amount) public {\n        // The sender must have enough tokens to send\n        require(msg.sender == owner, \"You are not the owner.\");\n\n        require(amount <= balances[user], \"Insufficient balance.\");\n\n        // Adjusts token balances of the two addresses\n        balances[user] -= amount;\n\n        // Emits the event defined earlier\n        emit Burn(user, amount);\n    }\n}\n",
  "sourcePath": "/Users/bellchristian/code/ChristianBell1995/blockchain/mytoken/contracts/Token.sol",
  "compiler": {
    "name": "solc",
    "version": "0.5.0+commit.1d4f565a.Emscripten.clang"
  },
  "schemaVersion": "3.0.1",
  "updatedAt": "2020-08-19T14:26:10.640Z",
  "devdoc": {
    "methods": {}
  },
  "userdoc": {
    "methods": {}
  }
}